{
  "contractName": "SolnSquareVerifier",
  "abi": [
    {
      "constant": true,
      "inputs": [
        {
          "name": "interfaceId",
          "type": "bytes4"
        }
      ],
      "name": "supportsInterface",
      "outputs": [
        {
          "name": "",
          "type": "bool"
        }
      ],
      "payable": false,
      "stateMutability": "view",
      "type": "function",
      "signature": "0x01ffc9a7"
    },
    {
      "constant": true,
      "inputs": [
        {
          "name": "tokenId",
          "type": "uint256"
        }
      ],
      "name": "getApproved",
      "outputs": [
        {
          "name": "",
          "type": "address"
        }
      ],
      "payable": false,
      "stateMutability": "view",
      "type": "function",
      "signature": "0x081812fc"
    },
    {
      "constant": false,
      "inputs": [
        {
          "name": "to",
          "type": "address"
        },
        {
          "name": "tokenId",
          "type": "uint256"
        }
      ],
      "name": "approve",
      "outputs": [],
      "payable": false,
      "stateMutability": "nonpayable",
      "type": "function",
      "signature": "0x095ea7b3"
    },
    {
      "constant": false,
      "inputs": [
        {
          "name": "tokenURI",
          "type": "string"
        },
        {
          "name": "tokenId",
          "type": "uint256"
        }
      ],
      "name": "setTokenURI",
      "outputs": [
        {
          "name": "",
          "type": "string"
        }
      ],
      "payable": false,
      "stateMutability": "nonpayable",
      "type": "function",
      "signature": "0x09a3beef"
    },
    {
      "constant": true,
      "inputs": [],
      "name": "success",
      "outputs": [
        {
          "name": "",
          "type": "bool"
        }
      ],
      "payable": false,
      "stateMutability": "view",
      "type": "function",
      "signature": "0x0b93381b"
    },
    {
      "constant": false,
      "inputs": [],
      "name": "getSymbol",
      "outputs": [
        {
          "name": "",
          "type": "string"
        }
      ],
      "payable": false,
      "stateMutability": "nonpayable",
      "type": "function",
      "signature": "0x15070401"
    },
    {
      "constant": false,
      "inputs": [],
      "name": "getName",
      "outputs": [
        {
          "name": "",
          "type": "string"
        }
      ],
      "payable": false,
      "stateMutability": "nonpayable",
      "type": "function",
      "signature": "0x17d7de7c"
    },
    {
      "constant": true,
      "inputs": [],
      "name": "totalSupply",
      "outputs": [
        {
          "name": "",
          "type": "uint256"
        }
      ],
      "payable": false,
      "stateMutability": "view",
      "type": "function",
      "signature": "0x18160ddd"
    },
    {
      "constant": false,
      "inputs": [
        {
          "name": "to",
          "type": "address"
        },
        {
          "name": "tokenCount",
          "type": "uint256"
        }
      ],
      "name": "transferFromAdd",
      "outputs": [
        {
          "name": "",
          "type": "bool"
        }
      ],
      "payable": false,
      "stateMutability": "nonpayable",
      "type": "function",
      "signature": "0x18d66476"
    },
    {
      "constant": true,
      "inputs": [],
      "name": "totalTokenSupply",
      "outputs": [
        {
          "name": "",
          "type": "uint256"
        }
      ],
      "payable": false,
      "stateMutability": "view",
      "type": "function",
      "signature": "0x1ca8b6cb"
    },
    {
      "constant": false,
      "inputs": [
        {
          "name": "from",
          "type": "address"
        },
        {
          "name": "to",
          "type": "address"
        },
        {
          "name": "tokenId",
          "type": "uint256"
        }
      ],
      "name": "transferFrom",
      "outputs": [],
      "payable": false,
      "stateMutability": "nonpayable",
      "type": "function",
      "signature": "0x23b872dd"
    },
    {
      "constant": true,
      "inputs": [],
      "name": "totalSupplyToken",
      "outputs": [
        {
          "name": "",
          "type": "uint256"
        }
      ],
      "payable": false,
      "stateMutability": "view",
      "type": "function",
      "signature": "0x27213345"
    },
    {
      "constant": false,
      "inputs": [
        {
          "name": "_myid",
          "type": "bytes32"
        },
        {
          "name": "_result",
          "type": "string"
        }
      ],
      "name": "__callback",
      "outputs": [],
      "payable": false,
      "stateMutability": "nonpayable",
      "type": "function",
      "signature": "0x27dc297e"
    },
    {
      "constant": true,
      "inputs": [
        {
          "name": "owner",
          "type": "address"
        },
        {
          "name": "index",
          "type": "uint256"
        }
      ],
      "name": "tokenOfOwnerByIndex",
      "outputs": [
        {
          "name": "",
          "type": "uint256"
        }
      ],
      "payable": false,
      "stateMutability": "view",
      "type": "function",
      "signature": "0x2f745c59"
    },
    {
      "constant": false,
      "inputs": [
        {
          "name": "_myid",
          "type": "bytes32"
        },
        {
          "name": "_result",
          "type": "string"
        },
        {
          "name": "_proof",
          "type": "bytes"
        }
      ],
      "name": "__callback",
      "outputs": [],
      "payable": false,
      "stateMutability": "nonpayable",
      "type": "function",
      "signature": "0x38bbfa50"
    },
    {
      "constant": false,
      "inputs": [
        {
          "name": "from",
          "type": "address"
        },
        {
          "name": "to",
          "type": "address"
        },
        {
          "name": "tokenId",
          "type": "uint256"
        }
      ],
      "name": "safeTransferFrom",
      "outputs": [],
      "payable": false,
      "stateMutability": "nonpayable",
      "type": "function",
      "signature": "0x42842e0e"
    },
    {
      "constant": true,
      "inputs": [
        {
          "components": [
            {
              "components": [
                {
                  "name": "X",
                  "type": "uint256"
                },
                {
                  "name": "Y",
                  "type": "uint256"
                }
              ],
              "name": "a",
              "type": "tuple"
            },
            {
              "components": [
                {
                  "name": "X",
                  "type": "uint256[2]"
                },
                {
                  "name": "Y",
                  "type": "uint256[2]"
                }
              ],
              "name": "b",
              "type": "tuple"
            },
            {
              "components": [
                {
                  "name": "X",
                  "type": "uint256"
                },
                {
                  "name": "Y",
                  "type": "uint256"
                }
              ],
              "name": "c",
              "type": "tuple"
            }
          ],
          "name": "proof",
          "type": "tuple"
        },
        {
          "name": "input",
          "type": "uint256[2]"
        }
      ],
      "name": "verifyTx",
      "outputs": [
        {
          "name": "r",
          "type": "bool"
        }
      ],
      "payable": false,
      "stateMutability": "view",
      "type": "function",
      "signature": "0x43cd76fc"
    },
    {
      "constant": false,
      "inputs": [],
      "name": "getbaseTokenURI",
      "outputs": [
        {
          "name": "",
          "type": "string"
        }
      ],
      "payable": false,
      "stateMutability": "nonpayable",
      "type": "function",
      "signature": "0x447ec2b7"
    },
    {
      "constant": true,
      "inputs": [
        {
          "name": "index",
          "type": "uint256"
        }
      ],
      "name": "tokenByIndex",
      "outputs": [
        {
          "name": "",
          "type": "uint256"
        }
      ],
      "payable": false,
      "stateMutability": "view",
      "type": "function",
      "signature": "0x4f6ccce7"
    },
    {
      "constant": true,
      "inputs": [
        {
          "name": "tokenId",
          "type": "uint256"
        }
      ],
      "name": "ownerOf",
      "outputs": [
        {
          "name": "",
          "type": "address"
        }
      ],
      "payable": false,
      "stateMutability": "view",
      "type": "function",
      "signature": "0x6352211e"
    },
    {
      "constant": true,
      "inputs": [
        {
          "name": "owner",
          "type": "address"
        }
      ],
      "name": "balanceOf",
      "outputs": [
        {
          "name": "",
          "type": "uint256"
        }
      ],
      "payable": false,
      "stateMutability": "view",
      "type": "function",
      "signature": "0x70a08231"
    },
    {
      "constant": false,
      "inputs": [
        {
          "components": [
            {
              "components": [
                {
                  "name": "X",
                  "type": "uint256"
                },
                {
                  "name": "Y",
                  "type": "uint256"
                }
              ],
              "name": "a",
              "type": "tuple"
            },
            {
              "components": [
                {
                  "name": "X",
                  "type": "uint256[2]"
                },
                {
                  "name": "Y",
                  "type": "uint256[2]"
                }
              ],
              "name": "b",
              "type": "tuple"
            },
            {
              "components": [
                {
                  "name": "X",
                  "type": "uint256"
                },
                {
                  "name": "Y",
                  "type": "uint256"
                }
              ],
              "name": "c",
              "type": "tuple"
            }
          ],
          "name": "proof",
          "type": "tuple"
        },
        {
          "name": "input",
          "type": "uint256[2]"
        }
      ],
      "name": "verifyzok",
      "outputs": [
        {
          "name": "",
          "type": "bool"
        }
      ],
      "payable": false,
      "stateMutability": "nonpayable",
      "type": "function",
      "signature": "0x76f4317f"
    },
    {
      "constant": false,
      "inputs": [],
      "name": "pause",
      "outputs": [],
      "payable": false,
      "stateMutability": "nonpayable",
      "type": "function",
      "signature": "0x8456cb59"
    },
    {
      "constant": false,
      "inputs": [
        {
          "name": "owner",
          "type": "address"
        }
      ],
      "name": "balanceOfAddress",
      "outputs": [
        {
          "name": "",
          "type": "uint256"
        }
      ],
      "payable": false,
      "stateMutability": "nonpayable",
      "type": "function",
      "signature": "0x86212b8f"
    },
    {
      "constant": true,
      "inputs": [],
      "name": "getOwner",
      "outputs": [
        {
          "name": "",
          "type": "address"
        }
      ],
      "payable": false,
      "stateMutability": "view",
      "type": "function",
      "signature": "0x893d20e8"
    },
    {
      "constant": true,
      "inputs": [],
      "name": "isOwner",
      "outputs": [
        {
          "name": "",
          "type": "bool"
        }
      ],
      "payable": false,
      "stateMutability": "view",
      "type": "function",
      "signature": "0x8f32d59b"
    },
    {
      "constant": false,
      "inputs": [
        {
          "name": "to",
          "type": "address"
        },
        {
          "name": "approved",
          "type": "bool"
        }
      ],
      "name": "setApprovalForAll",
      "outputs": [],
      "payable": false,
      "stateMutability": "nonpayable",
      "type": "function",
      "signature": "0xa22cb465"
    },
    {
      "constant": false,
      "inputs": [],
      "name": "unpaused",
      "outputs": [],
      "payable": false,
      "stateMutability": "nonpayable",
      "type": "function",
      "signature": "0xb0b62f5a"
    },
    {
      "constant": false,
      "inputs": [
        {
          "name": "from",
          "type": "address"
        },
        {
          "name": "to",
          "type": "address"
        },
        {
          "name": "tokenId",
          "type": "uint256"
        },
        {
          "name": "_data",
          "type": "bytes"
        }
      ],
      "name": "safeTransferFrom",
      "outputs": [],
      "payable": false,
      "stateMutability": "nonpayable",
      "type": "function",
      "signature": "0xb88d4fde"
    },
    {
      "constant": false,
      "inputs": [
        {
          "name": "tokenId",
          "type": "uint256"
        }
      ],
      "name": "tokenURI",
      "outputs": [
        {
          "name": "",
          "type": "string"
        }
      ],
      "payable": false,
      "stateMutability": "nonpayable",
      "type": "function",
      "signature": "0xc87b56dd"
    },
    {
      "constant": true,
      "inputs": [],
      "name": "contractOwner",
      "outputs": [
        {
          "name": "",
          "type": "address"
        }
      ],
      "payable": false,
      "stateMutability": "view",
      "type": "function",
      "signature": "0xce606ee0"
    },
    {
      "constant": false,
      "inputs": [
        {
          "name": "to",
          "type": "address"
        },
        {
          "name": "tokenId",
          "type": "uint256"
        },
        {
          "name": "tokenURI",
          "type": "string"
        }
      ],
      "name": "mint",
      "outputs": [
        {
          "name": "",
          "type": "uint256"
        }
      ],
      "payable": false,
      "stateMutability": "nonpayable",
      "type": "function",
      "signature": "0xd3fc9864"
    },
    {
      "constant": false,
      "inputs": [],
      "name": "setPause",
      "outputs": [],
      "payable": false,
      "stateMutability": "nonpayable",
      "type": "function",
      "signature": "0xd431b1ac"
    },
    {
      "constant": true,
      "inputs": [
        {
          "name": "owner",
          "type": "address"
        },
        {
          "name": "operator",
          "type": "address"
        }
      ],
      "name": "isApprovedForAll",
      "outputs": [
        {
          "name": "",
          "type": "bool"
        }
      ],
      "payable": false,
      "stateMutability": "view",
      "type": "function",
      "signature": "0xe985e9c5"
    },
    {
      "constant": true,
      "inputs": [],
      "name": "contractERC721Mint",
      "outputs": [
        {
          "name": "",
          "type": "address"
        }
      ],
      "payable": false,
      "stateMutability": "view",
      "type": "function",
      "signature": "0xee383e49"
    },
    {
      "constant": false,
      "inputs": [
        {
          "name": "newOwner",
          "type": "address"
        }
      ],
      "name": "transferOwnership",
      "outputs": [],
      "payable": false,
      "stateMutability": "nonpayable",
      "type": "function",
      "signature": "0xf2fde38b"
    },
    {
      "anonymous": false,
      "inputs": [
        {
          "indexed": false,
          "name": "index",
          "type": "uint256"
        }
      ],
      "name": "solutionAdded",
      "type": "event",
      "signature": "0x3198a238243ab0d4aeea80d0f4f55a6a0a8cccb4e2b5a96c21685d6fc317cc91"
    },
    {
      "anonymous": false,
      "inputs": [
        {
          "indexed": false,
          "name": "tokenId",
          "type": "uint256"
        }
      ],
      "name": "NFTminted",
      "type": "event",
      "signature": "0x7ce8d607544a264139c536d3407e18b064e18a53c8037d0fe3c5fd89c96a7b02"
    },
    {
      "anonymous": false,
      "inputs": [
        {
          "indexed": true,
          "name": "from",
          "type": "address"
        },
        {
          "indexed": true,
          "name": "to",
          "type": "address"
        },
        {
          "indexed": true,
          "name": "tokenId",
          "type": "uint256"
        }
      ],
      "name": "Transfer",
      "type": "event",
      "signature": "0xddf252ad1be2c89b69c2b068fc378daa952ba7f163c4a11628f55a4df523b3ef"
    },
    {
      "anonymous": false,
      "inputs": [
        {
          "indexed": true,
          "name": "owner",
          "type": "address"
        },
        {
          "indexed": true,
          "name": "approved",
          "type": "address"
        },
        {
          "indexed": true,
          "name": "tokenId",
          "type": "uint256"
        }
      ],
      "name": "Approval",
      "type": "event",
      "signature": "0x8c5be1e5ebec7d5bd14f71427d1e84f3dd0314c0f7b2291e5b200ac8c7c3b925"
    },
    {
      "anonymous": false,
      "inputs": [
        {
          "indexed": true,
          "name": "owner",
          "type": "address"
        },
        {
          "indexed": true,
          "name": "operator",
          "type": "address"
        },
        {
          "indexed": false,
          "name": "approved",
          "type": "bool"
        }
      ],
      "name": "ApprovalForAll",
      "type": "event",
      "signature": "0x17307eab39ab6107e8899845ad3d59bd9653f200f220920489ca2b5937696c31"
    },
    {
      "anonymous": false,
      "inputs": [
        {
          "indexed": false,
          "name": "account",
          "type": "address"
        }
      ],
      "name": "Paused",
      "type": "event",
      "signature": "0x62e78cea01bee320cd4e420270b5ea74000d11b0c9f74754ebdbfc544b05a258"
    },
    {
      "anonymous": false,
      "inputs": [
        {
          "indexed": false,
          "name": "account",
          "type": "address"
        }
      ],
      "name": "unPaused",
      "type": "event",
      "signature": "0x2117a86d7496b6aed0459f1c7ddcff93ed4ab54d2fb577eea08c310cf98fcb4e"
    },
    {
      "anonymous": false,
      "inputs": [
        {
          "indexed": false,
          "name": "newOwner",
          "type": "address"
        }
      ],
      "name": "TransferOwnership",
      "type": "event",
      "signature": "0xcfaaa26691e16e66e73290fc725eee1a6b4e0e693a1640484937aac25ffb55a4"
    },
    {
      "anonymous": false,
      "inputs": [],
      "name": "transferOwn",
      "type": "event",
      "signature": "0x361327a493efd7042c254832e6276bb0f482fbea82a049e6e81f04a5b42b77e4"
    },
    {
      "constant": false,
      "inputs": [
        {
          "name": "owner",
          "type": "address"
        }
      ],
      "name": "addSolutions",
      "outputs": [
        {
          "name": "",
          "type": "uint256"
        }
      ],
      "payable": false,
      "stateMutability": "nonpayable",
      "type": "function",
      "signature": "0x9600a779"
    },
    {
      "constant": false,
      "inputs": [
        {
          "name": "totalSupplyCount",
          "type": "uint256"
        },
        {
          "name": "owner",
          "type": "address"
        },
        {
          "name": "tokenId",
          "type": "uint256"
        },
        {
          "name": "tokenURI",
          "type": "string"
        },
        {
          "components": [
            {
              "components": [
                {
                  "name": "X",
                  "type": "uint256"
                },
                {
                  "name": "Y",
                  "type": "uint256"
                }
              ],
              "name": "a",
              "type": "tuple"
            },
            {
              "components": [
                {
                  "name": "X",
                  "type": "uint256[2]"
                },
                {
                  "name": "Y",
                  "type": "uint256[2]"
                }
              ],
              "name": "b",
              "type": "tuple"
            },
            {
              "components": [
                {
                  "name": "X",
                  "type": "uint256"
                },
                {
                  "name": "Y",
                  "type": "uint256"
                }
              ],
              "name": "c",
              "type": "tuple"
            }
          ],
          "name": "proof",
          "type": "tuple"
        },
        {
          "name": "input",
          "type": "uint256[2]"
        }
      ],
      "name": "mintNFT",
      "outputs": [
        {
          "name": "",
          "type": "bool"
        }
      ],
      "payable": false,
      "stateMutability": "nonpayable",
      "type": "function",
      "signature": "0x0e9de97e"
    }
  ],
  "bytecode": "0x60806040527388a6a89522cabed146e8f185c3766ca74327a665601460006101000a81548173ffffffffffffffffffffffffffffffffffffffff021916908373ffffffffffffffffffffffffffffffffffffffff16021790555030601560006101000a81548173ffffffffffffffffffffffffffffffffffffffff021916908373ffffffffffffffffffffffffffffffffffffffff1602179055506000601a60006101000a81548160ff0219169083151502179055507388a6a89522cabed146e8f185c3766ca74327a665601a60016101000a81548173ffffffffffffffffffffffffffffffffffffffff021916908373ffffffffffffffffffffffffffffffffffffffff1602179055506000601b55336000806101000a81548173ffffffffffffffffffffffffffffffffffffffff021916908373ffffffffffffffffffffffffffffffffffffffff16021790555060008060146101000a81548160ff021916908315150217905550620001a66301ffc9a77c0100000000000000000000000000000000000000000000000000000000026200034d640100000000026401000000009004565b620001e36380ac58cd7c0100000000000000000000000000000000000000000000000000000000026200034d640100000000026401000000009004565b6200022063780e9d637c0100000000000000000000000000000000000000000000000000000000026200034d640100000000026401000000009004565b6040518060400160405280601181526020017f436f6e7472616374204d65746164617461000000000000000000000000000000815250600f90805190602001906200026d92919062000409565b506040518060400160405280600381526020017f455448000000000000000000000000000000000000000000000000000000000081525060109080519060200190620002bb92919062000409565b50620002f9635b5e139f7c0100000000000000000000000000000000000000000000000000000000026200034d640100000000026401000000009004565b6020601381905550601354601860003373ffffffffffffffffffffffffffffffffffffffff1673ffffffffffffffffffffffffffffffffffffffff16815260200190815260200160002081905550620004b8565b63ffffffff7c010000000000000000000000000000000000000000000000000000000002817bffffffffffffffffffffffffffffffffffffffffffffffffffffffff191614156200039d57600080fd5b6001806000837bffffffffffffffffffffffffffffffffffffffffffffffffffffffff19167bffffffffffffffffffffffffffffffffffffffffffffffffffffffff1916815260200190815260200160002060006101000a81548160ff02191690831515021790555050565b828054600181600116156101000203166002900490600052602060002090601f016020900481019282601f106200044c57805160ff19168380011785556200047d565b828001600101855582156200047d579182015b828111156200047c5782518255916020019190600101906200045f565b5b5090506200048c919062000490565b5090565b620004b591905b80821115620004b157600081600090555060010162000497565b5090565b90565b6149eb80620004c86000396000f3fe608060405234801561001057600080fd5b506004361061024f576000357c0100000000000000000000000000000000000000000000000000000000900480634f6ccce71161014d578063a22cb465116100d5578063d3fc986411610099578063d3fc9864146106f8578063d431b1ac14610728578063e985e9c514610732578063ee383e4914610762578063f2fde38b146107805761024f565b8063a22cb46514610668578063b0b62f5a14610684578063b88d4fde1461068e578063c87b56dd146106aa578063ce606ee0146106da5761024f565b80638456cb591161011c5780638456cb59146105c257806386212b8f146105cc578063893d20e8146105fc5780638f32d59b1461061a5780639600a779146106385761024f565b80634f6ccce7146105025780636352211e1461053257806370a082311461056257806376f4317f146105925761024f565b806318d66476116101db5780632f745c591161019f5780632f745c591461044c57806338bbfa501461047c57806342842e0e1461049857806343cd76fc146104b4578063447ec2b7146104e45761024f565b806318d66476146103a85780631ca8b6cb146103d857806323b872dd146103f6578063272133451461041257806327dc297e146104305761024f565b80630b93381b116102225780630b93381b146103005780630e9de97e1461031e578063150704011461034e57806317d7de7c1461036c57806318160ddd1461038a5761024f565b806301ffc9a714610254578063081812fc14610284578063095ea7b3146102b457806309a3beef146102d0575b600080fd5b61026e60048036036102699190810190613e05565b61079c565b60405161027b9190614549565b60405180910390f35b61029e60048036036102999190810190613ee9565b610804565b6040516102ab91906144c7565b60405180910390f35b6102ce60048036036102c99190810190613c8f565b610889565b005b6102ea60048036036102e59190810190613e57565b610a36565b6040516102f79190614564565b60405180910390f35b610308610a4a565b6040516103159190614549565b60405180910390f35b61033860048036036103339190810190613f12565b610a5d565b6040516103459190614549565b60405180910390f35b610356610bb3565b6040516103639190614564565b60405180910390f35b610374610c55565b6040516103819190614564565b60405180910390f35b610392610cf7565b60405161039f9190614746565b60405180910390f35b6103c260048036036103bd9190810190613c8f565b610d04565b6040516103cf9190614549565b60405180910390f35b6103e0610ebc565b6040516103ed9190614746565b60405180910390f35b610410600480360361040b9190810190613b89565b610ec2565b005b61041a610ee5565b6040516104279190614746565b60405180910390f35b61044a60048036036104459190810190613d32565b610eef565b005b61046660048036036104619190810190613c8f565b610f32565b6040516104739190614746565b60405180910390f35b61049660048036036104919190810190613d86565b610fa5565b005b6104b260048036036104ad9190810190613b89565b610faa565b005b6104ce60048036036104c99190810190613eab565b610fca565b6040516104db9190614549565b60405180910390f35b6104ec61106f565b6040516104f99190614564565b60405180910390f35b61051c60048036036105179190810190613ee9565b611111565b6040516105299190614746565b60405180910390f35b61054c60048036036105479190810190613ee9565b611145565b60405161055991906144c7565b60405180910390f35b61057c60048036036105779190810190613b24565b6111f4565b6040516105899190614746565b60405180910390f35b6105ac60048036036105a79190810190613eab565b611244565b6040516105b99190614549565b60405180910390f35b6105ca611292565b005b6105e660048036036105e19190810190613b24565b611300565b6040516105f39190614746565b60405180910390f35b610604611312565b60405161061191906144c7565b60405180910390f35b61062261133b565b60405161062f9190614549565b60405180910390f35b610652600480360361064d9190810190613b24565b611392565b60405161065f9190614746565b60405180910390f35b610682600480360361067d9190810190613c53565b611543565b005b61068c611679565b005b6106a860048036036106a39190810190613bd8565b6116cc565b005b6106c460048036036106bf9190810190613ee9565b6116f2565b6040516106d19190614564565b60405180910390f35b6106e26117b9565b6040516106ef91906144c7565b60405180910390f35b610712600480360361070d9190810190613ccb565b6117df565b60405161071f9190614746565b60405180910390f35b61073061195a565b005b61074c60048036036107479190810190613b4d565b6119a3565b6040516107599190614549565b60405180910390f35b61076a611a37565b60405161077791906144c7565b60405180910390f35b61079a60048036036107959190810190613b24565b611a5d565b005b600060016000837bffffffffffffffffffffffffffffffffffffffffffffffffffffffff19167bffffffffffffffffffffffffffffffffffffffffffffffffffffffff1916815260200190815260200160002060009054906101000a900460ff169050919050565b600061080f82611ab0565b61084e576040517f08c379a0000000000000000000000000000000000000000000000000000000008152600401610845906146e6565b60405180910390fd5b6003600083815260200190815260200160002060009054906101000a900473ffffffffffffffffffffffffffffffffffffffff169050919050565b600061089482611145565b90508073ffffffffffffffffffffffffffffffffffffffff168373ffffffffffffffffffffffffffffffffffffffff161415610905576040517f08c379a00000000000000000000000000000000000000000000000000000000081526004016108fc90614586565b60405180910390fd5b8073ffffffffffffffffffffffffffffffffffffffff163373ffffffffffffffffffffffffffffffffffffffff161480610945575061094481336119a3565b5b610984576040517f08c379a000000000000000000000000000000000000000000000000000000000815260040161097b906146a6565b60405180910390fd5b826003600084815260200190815260200160002060006101000a81548173ffffffffffffffffffffffffffffffffffffffff021916908373ffffffffffffffffffffffffffffffffffffffff160217905550818373ffffffffffffffffffffffffffffffffffffffff168273ffffffffffffffffffffffffffffffffffffffff167f8c5be1e5ebec7d5bd14f71427d1e84f3dd0314c0f7b2291e5b200ac8c7c3b92560405160405180910390a4505050565b6060610a428383611b22565b905092915050565b601a60009054906101000a900460ff1681565b600060011515610a6d8484611244565b151514610aaf576040517f08c379a0000000000000000000000000000000000000000000000000000000008152600401610aa6906145c6565b60405180910390fd5b600b8710610af2576040517f08c379a0000000000000000000000000000000000000000000000000000000008152600401610ae990614646565b60405180910390fd5b60008090505b601c805490508160ff1611610ba75760001515601c8260ff1681548110610b1b57fe5b906000526020600020906002020160010160009054906101000a900460ff1615151415610b9a57610b4d8787876117df565b50610b588587610a36565b507f7ce8d607544a264139c536d3407e18b064e18a53c8037d0fe3c5fd89c96a7b0286604051610b889190614746565b60405180910390a16001915050610ba9565b8080600101915050610af8565b505b9695505050505050565b606060108054600181600116156101000203166002900480601f016020809104026020016040519081016040528092919081815260200182805460018160011615610100020316600290048015610c4b5780601f10610c2057610100808354040283529160200191610c4b565b820191906000526020600020905b815481529060010190602001808311610c2e57829003601f168201915b5050505050905090565b6060600f8054600181600116156101000203166002900480601f016020809104026020016040519081016040528092919081815260200182805460018160011615610100020316600290048015610ced5780601f10610cc257610100808354040283529160200191610ced565b820191906000526020600020905b815481529060010190602001808311610cd057829003601f168201915b5050505050905090565b6000600880549050905090565b6000601760003373ffffffffffffffffffffffffffffffffffffffff1673ffffffffffffffffffffffffffffffffffffffff16815260200190815260200160002054821015610d88576040517f08c379a0000000000000000000000000000000000000000000000000000000008152600401610d7f90614726565b60405180910390fd5b610dda82601760003373ffffffffffffffffffffffffffffffffffffffff1673ffffffffffffffffffffffffffffffffffffffff16815260200190815260200160002054611b3e90919063ffffffff16565b601760003373ffffffffffffffffffffffffffffffffffffffff1673ffffffffffffffffffffffffffffffffffffffff16815260200190815260200160002081905550610e6f82601760008673ffffffffffffffffffffffffffffffffffffffff1673ffffffffffffffffffffffffffffffffffffffff16815260200190815260200160002054611b9490919063ffffffff16565b601760008573ffffffffffffffffffffffffffffffffffffffff1673ffffffffffffffffffffffffffffffffffffffff168152602001908152602001600020819055506001905092915050565b60135481565b610ecc3382611be9565b610ed557600080fd5b610ee0838383611c7e565b505050565b6000601354905090565b610f2e828260006040519080825280601f01601f191660200182016040528015610f285781602001600182028038833980820191505090505b50610fa5565b5050565b6000610f3d836111f4565b8210610f4857600080fd5b600660008473ffffffffffffffffffffffffffffffffffffffff1673ffffffffffffffffffffffffffffffffffffffff1681526020019081526020016000208281548110610f9257fe5b9060005260206000200154905092915050565b505050565b610fc5838383604051806020016040528060008152506116cc565b505050565b600060606002604051908082528060200260200182016040528015610ffe5781602001602082028038833980820191505090505b50905060008090505b60028110156110465783816002811061101c57fe5b602002015182828151811061102d57fe5b6020026020010181815250508080600101915050611007565b5060006110538286611ca2565b1415611063576001915050611069565b60009150505b92915050565b606060118054600181600116156101000203166002900480601f0160208091040260200160405190810160405280929190818152602001828054600181600116156101000203166002900480156111075780601f106110dc57610100808354040283529160200191611107565b820191906000526020600020905b8154815290600101906020018083116110ea57829003601f168201915b5050505050905090565b600061111b610cf7565b821061112657600080fd5b6008828154811061113357fe5b90600052602060002001549050919050565b6000806002600084815260200190815260200160002060009054906101000a900473ffffffffffffffffffffffffffffffffffffffff169050600073ffffffffffffffffffffffffffffffffffffffff168173ffffffffffffffffffffffffffffffffffffffff1614156111ee576040517f08c379a00000000000000000000000000000000000000000000000000000000081526004016111e5906146c6565b60405180910390fd5b50919050565b600061123d600460008473ffffffffffffffffffffffffffffffffffffffff1673ffffffffffffffffffffffffffffffffffffffff168152602001908152602001600020611e14565b9050919050565b60006112508383610fca565b601a60006101000a81548160ff021916908315150217905550601a60009054906101000a900460ff1615611287576001905061128c565b600090505b92915050565b600060149054906101000a900460ff16156112ac57600080fd5b6001600060146101000a81548160ff0219169083151502179055507f62e78cea01bee320cd4e420270b5ea74000d11b0c9f74754ebdbfc544b05a258336040516112f691906144e2565b60405180910390a1565b600061130b826111f4565b9050919050565b60008060009054906101000a900473ffffffffffffffffffffffffffffffffffffffff16905090565b60008060009054906101000a900473ffffffffffffffffffffffffffffffffffffffff1673ffffffffffffffffffffffffffffffffffffffff163373ffffffffffffffffffffffffffffffffffffffff1614905090565b60006040518060600160405280601b5481526020016001151581526020018373ffffffffffffffffffffffffffffffffffffffff16815250601d6000601b5481526020019081526020016000206000820151816000015560208201518160010160006101000a81548160ff02191690831515021790555060408201518160010160016101000a81548173ffffffffffffffffffffffffffffffffffffffff021916908373ffffffffffffffffffffffffffffffffffffffff160217905550905050601c601d6000601b54815260200190815260200160002090806001815401808255809150509060018203906000526020600020906002020160009091929091909150600082015481600001556001820160009054906101000a900460ff168160010160006101000a81548160ff0219169083151502179055506001820160019054906101000a900473ffffffffffffffffffffffffffffffffffffffff168160010160016101000a81548173ffffffffffffffffffffffffffffffffffffffff021916908373ffffffffffffffffffffffffffffffffffffffff160217905550505050601c805490509050919050565b3373ffffffffffffffffffffffffffffffffffffffff168273ffffffffffffffffffffffffffffffffffffffff16141561157c57600080fd5b80600560003373ffffffffffffffffffffffffffffffffffffffff1673ffffffffffffffffffffffffffffffffffffffff16815260200190815260200160002060008473ffffffffffffffffffffffffffffffffffffffff1673ffffffffffffffffffffffffffffffffffffffff16815260200190815260200160002060006101000a81548160ff0219169083151502179055508173ffffffffffffffffffffffffffffffffffffffff163373ffffffffffffffffffffffffffffffffffffffff167f17307eab39ab6107e8899845ad3d59bd9653f200f220920489ca2b5937696c318360405161166d9190614549565b60405180910390a35050565b60008060146101000a81548160ff0219169083151502179055507f2117a86d7496b6aed0459f1c7ddcff93ed4ab54d2fb577eea08c310cf98fcb4e336040516116c291906144e2565b60405180910390a1565b6116d7848484610ec2565b6116e384848484611e22565b6116ec57600080fd5b50505050565b60606116fd82611ab0565b61170657600080fd5b601260008381526020019081526020016000208054600181600116156101000203166002900480601f0160208091040260200160405190810160405280929190818152602001828054600181600116156101000203166002900480156117ad5780601f10611782576101008083540402835291602001916117ad565b820191906000526020600020905b81548152906001019060200180831161179057829003601f168201915b50505050509050919050565b601460009054906101000a900473ffffffffffffffffffffffffffffffffffffffff1681565b6000601460009054906101000a900473ffffffffffffffffffffffffffffffffffffffff1673ffffffffffffffffffffffffffffffffffffffff163373ffffffffffffffffffffffffffffffffffffffff1614611871576040517f08c379a0000000000000000000000000000000000000000000000000000000008152600401611868906145e6565b60405180910390fd5b61187b8484611f71565b6118ce6001601760008773ffffffffffffffffffffffffffffffffffffffff1673ffffffffffffffffffffffffffffffffffffffff16815260200190815260200160002054611b9490919063ffffffff16565b601760008673ffffffffffffffffffffffffffffffffffffffff1673ffffffffffffffffffffffffffffffffffffffff16815260200190815260200160002081905550601760008573ffffffffffffffffffffffffffffffffffffffff1673ffffffffffffffffffffffffffffffffffffffff1681526020019081526020016000205490509392505050565b61196261133b565b6119a1576040517f08c379a000000000000000000000000000000000000000000000000000000000815260040161199890614686565b60405180910390fd5b565b6000600560008473ffffffffffffffffffffffffffffffffffffffff1673ffffffffffffffffffffffffffffffffffffffff16815260200190815260200160002060008373ffffffffffffffffffffffffffffffffffffffff1673ffffffffffffffffffffffffffffffffffffffff16815260200190815260200160002060009054906101000a900460ff16905092915050565b601560009054906101000a900473ffffffffffffffffffffffffffffffffffffffff1681565b611a6561133b565b611aa4576040517f08c379a0000000000000000000000000000000000000000000000000000000008152600401611a9b90614686565b60405180910390fd5b611aad81611f92565b50565b6000806002600084815260200190815260200160002060009054906101000a900473ffffffffffffffffffffffffffffffffffffffff169050600073ffffffffffffffffffffffffffffffffffffffff168173ffffffffffffffffffffffffffffffffffffffff161415915050919050565b6060611b3683611b318461200f565b61215b565b905092915050565b600082821115611b83576040517f08c379a0000000000000000000000000000000000000000000000000000000008152600401611b7a90614626565b60405180910390fd5b600082840390508091505092915050565b600080828401905083811015611bdf576040517f08c379a0000000000000000000000000000000000000000000000000000000008152600401611bd6906145a6565b60405180910390fd5b8091505092915050565b600080611bf583611145565b90508073ffffffffffffffffffffffffffffffffffffffff168473ffffffffffffffffffffffffffffffffffffffff161480611c6457508373ffffffffffffffffffffffffffffffffffffffff16611c4c84610804565b73ffffffffffffffffffffffffffffffffffffffff16145b80611c755750611c7481856119a3565b5b91505092915050565b611c8983838361219f565b611c9383826123ce565b611c9d828261256c565b505050565b6000807f30644e72e131a029b85045b68181585d2833e84879b9709143e1f593f00000019050611cd06136a8565b611cd8612633565b9050806080015151600186510114611cef57600080fd5b611cf76136f0565b6040518060400160405280600081526020016000815250905060008090505b8651811015611d8d5783878281518110611d2c57fe5b602002602001015110611d3e57600080fd5b611d7e82611d7985608001516001850181518110611d5857fe5b60200260200101518a8581518110611d6c57fe5b6020026020010151612a80565b612b12565b91508080600101915050611d16565b50611db0818360800151600081518110611da357fe5b6020026020010151612b12565b9050611df685600001518660200151611dc884612bc3565b8560400151611dda8a60400151612bc3565b8760600151611dec8960000151612bc3565b8960200151612c5d565b611e065760019350505050611e0e565b600093505050505b92915050565b600081600001549050919050565b6000611e438473ffffffffffffffffffffffffffffffffffffffff16612dc1565b611e505760019050611f69565b60008473ffffffffffffffffffffffffffffffffffffffff1663150b7a02338887876040518563ffffffff167c0100000000000000000000000000000000000000000000000000000000028152600401611ead94939291906144fd565b602060405180830381600087803b158015611ec757600080fd5b505af1158015611edb573d6000803e3d6000fd5b505050506040513d601f19601f82011682018060405250611eff9190810190613e2e565b905063150b7a027c0100000000000000000000000000000000000000000000000000000000027bffffffffffffffffffffffffffffffffffffffffffffffffffffffff1916817bffffffffffffffffffffffffffffffffffffffffffffffffffffffff1916149150505b949350505050565b611f7b8282612dd4565b611f85828261256c565b611f8e81612f15565b5050565b600073ffffffffffffffffffffffffffffffffffffffff168173ffffffffffffffffffffffffffffffffffffffff161415611fcc57600080fd5b60003390507fcfaaa26691e16e66e73290fc725eee1a6b4e0e693a1640484937aac25ffb55a48260405161200091906144c7565b60405180910390a18190505050565b60606000821415612057576040518060400160405280600181526020017f30000000000000000000000000000000000000000000000000000000000000008152509050612156565b600082905060005b60008214612081578080600101915050600a828161207957fe5b04915061205f565b6060816040519080825280601f01601f1916602001820160405280156120b65781602001600182028038833980820191505090505b50905060006001830390505b6000861461214e57600a86816120d457fe5b066030017f0100000000000000000000000000000000000000000000000000000000000000028282806001900393508151811061210d57fe5b60200101907effffffffffffffffffffffffffffffffffffffffffffffffffffffffffffff1916908160001a905350600a868161214657fe5b0495506120c2565b819450505050505b919050565b60606121978383604051806020016040528060008152506040518060200160405280600081525060405180602001604052806000815250612f61565b905092915050565b6121a881611145565b73ffffffffffffffffffffffffffffffffffffffff168373ffffffffffffffffffffffffffffffffffffffff1614612215576040517f08c379a000000000000000000000000000000000000000000000000000000000815260040161220c90614666565b60405180910390fd5b600073ffffffffffffffffffffffffffffffffffffffff168273ffffffffffffffffffffffffffffffffffffffff161415612285576040517f08c379a000000000000000000000000000000000000000000000000000000000815260040161227c90614706565b60405180910390fd5b61228e8161335e565b6122d5600460008473ffffffffffffffffffffffffffffffffffffffff1673ffffffffffffffffffffffffffffffffffffffff16815260200190815260200160002061341c565b61231c600460008573ffffffffffffffffffffffffffffffffffffffff1673ffffffffffffffffffffffffffffffffffffffff168152602001908152602001600020613432565b816002600083815260200190815260200160002060006101000a81548173ffffffffffffffffffffffffffffffffffffffff021916908373ffffffffffffffffffffffffffffffffffffffff160217905550808273ffffffffffffffffffffffffffffffffffffffff168473ffffffffffffffffffffffffffffffffffffffff167fddf252ad1be2c89b69c2b068fc378daa952ba7f163c4a11628f55a4df523b3ef60405160405180910390a4505050565b60006124266001600660008673ffffffffffffffffffffffffffffffffffffffff1673ffffffffffffffffffffffffffffffffffffffff16815260200190815260200160002080549050611b3e90919063ffffffff16565b9050600060076000848152602001908152602001600020549050818114612513576000600660008673ffffffffffffffffffffffffffffffffffffffff1673ffffffffffffffffffffffffffffffffffffffff168152602001908152602001600020838154811061249357fe5b9060005260206000200154905080600660008773ffffffffffffffffffffffffffffffffffffffff1673ffffffffffffffffffffffffffffffffffffffff16815260200190815260200160002083815481106124eb57fe5b9060005260206000200181905550816007600083815260200190815260200160002081905550505b600660008573ffffffffffffffffffffffffffffffffffffffff1673ffffffffffffffffffffffffffffffffffffffff168152602001908152602001600020805480919060019003612565919061370a565b5050505050565b600660008373ffffffffffffffffffffffffffffffffffffffff1673ffffffffffffffffffffffffffffffffffffffff168152602001908152602001600020805490506007600083815260200190815260200160002081905550600660008373ffffffffffffffffffffffffffffffffffffffff1673ffffffffffffffffffffffffffffffffffffffff1681526020019081526020016000208190806001815401808255809150509060018203906000526020600020016000909192909190915055505050565b61263b6136a8565b60405180604001604052807f271c928248d1ec0ff348e2752c032c5176b62ef6db007d0ccdf520d44229c3f781526020017f25d8195a072a5b231e1d4869d6e7afe9d256f49520af3f6871197b09535aca9d8152508160000181905250604051806040016040528060405180604001604052807f03c7b6d535133ca54705f2d8a3f1425a3da501ace186ebf670d86589bf49687381526020017f0d6a71611c3595c1f50a26329ac9be4e8469e974c2b77c8aa6a28d91e141d3b8815250815260200160405180604001604052807f09512728ff620013af00bbdc7ad0246bfca1df380fe12a6eab94a6f46c2cd79281526020017f1e483165b626c034c230ae4c9380f5a3cadab75353a6602b69e4ddb26c78bdf98152508152508160200181905250604051806040016040528060405180604001604052807f15b880a921c168d31ff139b21f620b85fa4cbf1e36e5f4cb94c0760ddd463d2081526020017f261069e4070a0fe0a2c83ef769508d4fae6783f85ea463984a55fe70e8513a64815250815260200160405180604001604052807f12bc21a668f9b86a7aeea2995271a1d267c95543ec40f64739eddec787de0f9781526020017f11dabd2418ec87c5da382d891ea400c9ceaaa685553ae593f1e051cde9b02f6e8152508152508160400181905250604051806040016040528060405180604001604052807f0ccee4813d8b252d3bf44b7dc397ed78e594cd5e0080ffda0bdb0498c0140ee681526020017f114533ae59379e267ade8b6c51ea4f9eceefbf86d046256173697c495a2ff466815250815260200160405180604001604052807f106f487c464ba37107eeecdcf813a29b7cab16abf3b92cbf835b2300b56151d481526020017e54d7e4bfb2691e87b5228440e4992b8fb9e6bae92c757c76e08987c570aea58152508152508160600181905250600360405190808252806020026020018201604052801561292157816020015b61290e613736565b8152602001906001900390816129065790505b50816080018190525060405180604001604052807f07046e5847d1dd83b0819c464fa1ad87d5492ddc187f18f41afdb6068e9f16ca81526020017f2855afec9d064fffe6bf11796049b3febb5e43eb61975fdb7605e0cca4efeecf815250816080015160008151811061299057fe5b602002602001018190525060405180604001604052807f1085bc5c8e1d27a4bc37684826db69ab2f88c449fca226fba883052fe37e776981526020017f2ee6fb4257c398efdf53c13795c90181e27644d0fba0c0155b0ac635677ea9f98152508160800151600181518110612a0157fe5b602002602001018190525060405180604001604052807f062f3b39c87d0f3a5ea645a735572b2208613dfab266a36d971d55a9bc8959a581526020017f2cd50c07d740c0be5428c1b3fd3c86602afd841ba69584dfc9db96e7e6d60b908152508160800151600281518110612a7257fe5b602002602001018190525090565b612a886136f0565b612a90613750565b836000015181600060038110612aa257fe5b602002018181525050836020015181600160038110612abd57fe5b6020020181815250508281600260038110612ad457fe5b602002018181525050600060608360808460076107d05a03fa90508060008114612afd57612aff565bfe5b5080612b0a57600080fd5b505092915050565b612b1a6136f0565b612b22613772565b836000015181600060048110612b3457fe5b602002018181525050836020015181600160048110612b4f57fe5b602002018181525050826000015181600260048110612b6a57fe5b602002018181525050826020015181600360048110612b8557fe5b602002018181525050600060608360c08460066107d05a03fa90508060008114612bae57612bb0565bfe5b5080612bbb57600080fd5b505092915050565b612bcb6136f0565b60007f30644e72e131a029b85045b68181585d97816a916871ca8d3c208c16d87cfd47905060008360000151148015612c08575060008360200151145b15612c2c576040518060400160405280600081526020016000815250915050612c58565b60405180604001604052808460000151815260200182856020015181612c4e57fe5b0683038152509150505b919050565b600060606004604051908082528060200260200182016040528015612c9c57816020015b612c89613736565b815260200190600190039081612c815790505b50905060606004604051908082528060200260200182016040528015612cdc57816020015b612cc9613794565b815260200190600190039081612cc15790505b5090508a82600081518110612ced57fe5b60200260200101819052508882600181518110612d0657fe5b60200260200101819052508682600281518110612d1f57fe5b60200260200101819052508482600381518110612d3857fe5b60200260200101819052508981600081518110612d5157fe5b60200260200101819052508781600181518110612d6a57fe5b60200260200101819052508581600281518110612d8357fe5b60200260200101819052508381600381518110612d9c57fe5b6020026020010181905250612db18282613455565b9250505098975050505050505050565b600080823b905060008111915050919050565b612ddd81611ab0565b15612e1d576040517f08c379a0000000000000000000000000000000000000000000000000000000008152600401612e1490614606565b60405180910390fd5b816002600083815260200190815260200160002060006101000a81548173ffffffffffffffffffffffffffffffffffffffff021916908373ffffffffffffffffffffffffffffffffffffffff160217905550612eb6600460008473ffffffffffffffffffffffffffffffffffffffff1673ffffffffffffffffffffffffffffffffffffffff16815260200190815260200160002061341c565b808273ffffffffffffffffffffffffffffffffffffffff163373ffffffffffffffffffffffffffffffffffffffff167fddf252ad1be2c89b69c2b068fc378daa952ba7f163c4a11628f55a4df523b3ef60405160405180910390a45050565b6008805490506009600083815260200190815260200160002081905550600881908060018154018082558091505090600182039060005260206000200160009091929091909150555050565b6060808690506060869050606086905060608690506060869050606081518351855187518951010101016040519080825280601f01601f191660200182016040528015612fbd5781602001600182028038833980820191505090505b509050606081905060008090506000809050600090505b885181101561308157888181518110612fe957fe5b60200101517f010000000000000000000000000000000000000000000000000000000000000090047f01000000000000000000000000000000000000000000000000000000000000000283838060010194508151811061304557fe5b60200101907effffffffffffffffffffffffffffffffffffffffffffffffffffffffffffff1916908160001a9053508080600101915050612fd4565b600090505b87518110156131335787818151811061309b57fe5b60200101517f010000000000000000000000000000000000000000000000000000000000000090047f0100000000000000000000000000000000000000000000000000000000000000028383806001019450815181106130f757fe5b60200101907effffffffffffffffffffffffffffffffffffffffffffffffffffffffffffff1916908160001a9053508080600101915050613086565b600090505b86518110156131e55786818151811061314d57fe5b60200101517f010000000000000000000000000000000000000000000000000000000000000090047f0100000000000000000000000000000000000000000000000000000000000000028383806001019450815181106131a957fe5b60200101907effffffffffffffffffffffffffffffffffffffffffffffffffffffffffffff1916908160001a9053508080600101915050613138565b600090505b8551811015613297578581815181106131ff57fe5b60200101517f010000000000000000000000000000000000000000000000000000000000000090047f01000000000000000000000000000000000000000000000000000000000000000283838060010194508151811061325b57fe5b60200101907effffffffffffffffffffffffffffffffffffffffffffffffffffffffffffff1916908160001a90535080806001019150506131ea565b600090505b8451811015613349578481815181106132b157fe5b60200101517f010000000000000000000000000000000000000000000000000000000000000090047f01000000000000000000000000000000000000000000000000000000000000000283838060010194508151811061330d57fe5b60200101907effffffffffffffffffffffffffffffffffffffffffffffffffffffffffffff1916908160001a905350808060010191505061329c565b82995050505050505050505095945050505050565b600073ffffffffffffffffffffffffffffffffffffffff166003600083815260200190815260200160002060009054906101000a900473ffffffffffffffffffffffffffffffffffffffff1673ffffffffffffffffffffffffffffffffffffffff16146134195760006003600083815260200190815260200160002060006101000a81548173ffffffffffffffffffffffffffffffffffffffff021916908373ffffffffffffffffffffffffffffffffffffffff1602179055505b50565b6001816000016000828254019250508190555050565b61344a60018260000154611b3e90919063ffffffff16565b816000018190555050565b6000815183511461346557600080fd5b60008351905060006006820290506060816040519080825280602002602001820160405280156134a45781602001602082028038833980820191505090505b50905060008090505b8381101561364a578681815181106134c157fe5b6020026020010151600001518260006006840201815181106134df57fe5b6020026020010181815250508681815181106134f757fe5b60200260200101516020015182600160068402018151811061351557fe5b60200260200101818152505085818151811061352d57fe5b60200260200101516000015160016002811061354557fe5b602002015182600260068402018151811061355c57fe5b60200260200101818152505085818151811061357457fe5b60200260200101516000015160006002811061358c57fe5b60200201518260036006840201815181106135a357fe5b6020026020010181815250508581815181106135bb57fe5b6020026020010151602001516001600281106135d357fe5b60200201518260046006840201815181106135ea57fe5b60200260200101818152505085818151811061360257fe5b60200260200101516020015160006002811061361a57fe5b602002015182600560068402018151811061363157fe5b60200260200101818152505080806001019150506134ad565b506136536137ba565b6000602082602086026020860160086107d05a03fa905080600081146136785761367a565bfe5b508061368557600080fd5b60008260006001811061369457fe5b602002015114159550505050505092915050565b604051806101e001604052806136bc613736565b81526020016136c9613794565b81526020016136d6613794565b81526020016136e3613794565b8152602001606081525090565b604051806040016040528060008152602001600081525090565b8154818355818111156137315781836000526020600020918201910161373091906137dc565b5b505050565b604051806040016040528060008152602001600081525090565b6040518060600160405280600390602082028038833980820191505090505090565b6040518060800160405280600490602082028038833980820191505090505090565b60405180608001604052806137a7613801565b81526020016137b4613801565b81525090565b6040518060200160405280600190602082028038833980820191505090505090565b6137fe91905b808211156137fa5760008160009055506001016137e2565b5090565b90565b6040518060400160405280600290602082028038833980820191505090505090565b600061382f82356148aa565b905092915050565b600082601f83011261384857600080fd5b600261385b6138568261478e565b614761565b9150818385602084028201111561387157600080fd5b60005b838110156138a157816138878882613b10565b845260208401935060208301925050600181019050613874565b5050505092915050565b600082601f8301126138bc57600080fd5b60026138cf6138ca826147b0565b614761565b915081838560208402820111156138e557600080fd5b60005b8381101561391557816138fb8882613b10565b8452602084019350602083019250506001810190506138e8565b5050505092915050565b600061392b82356148bc565b905092915050565b600061393f82356148c8565b905092915050565b600061395382356148d2565b905092915050565b600061396782516148d2565b905092915050565b600082601f83011261398057600080fd5b813561399361398e826147d2565b614761565b915080825260208301602083018583830111156139af57600080fd5b6139ba83828461495e565b50505092915050565b600082601f8301126139d457600080fd5b81356139e76139e2826147fe565b614761565b91508082526020830160208301858383011115613a0357600080fd5b613a0e83828461495e565b50505092915050565b600060408284031215613a2957600080fd5b613a336040614761565b90506000613a4384828501613b10565b6000830152506020613a5784828501613b10565b60208301525092915050565b600060808284031215613a7557600080fd5b613a7f6040614761565b90506000613a8f84828501613837565b6000830152506040613aa384828501613837565b60208301525092915050565b60006101008284031215613ac257600080fd5b613acc6060614761565b90506000613adc84828501613a17565b6000830152506040613af084828501613a63565b60208301525060c0613b0484828501613a17565b60408301525092915050565b6000613b1c823561491e565b905092915050565b600060208284031215613b3657600080fd5b6000613b4484828501613823565b91505092915050565b60008060408385031215613b6057600080fd5b6000613b6e85828601613823565b9250506020613b7f85828601613823565b9150509250929050565b600080600060608486031215613b9e57600080fd5b6000613bac86828701613823565b9350506020613bbd86828701613823565b9250506040613bce86828701613b10565b9150509250925092565b60008060008060808587031215613bee57600080fd5b6000613bfc87828801613823565b9450506020613c0d87828801613823565b9350506040613c1e87828801613b10565b925050606085013567ffffffffffffffff811115613c3b57600080fd5b613c478782880161396f565b91505092959194509250565b60008060408385031215613c6657600080fd5b6000613c7485828601613823565b9250506020613c858582860161391f565b9150509250929050565b60008060408385031215613ca257600080fd5b6000613cb085828601613823565b9250506020613cc185828601613b10565b9150509250929050565b600080600060608486031215613ce057600080fd5b6000613cee86828701613823565b9350506020613cff86828701613b10565b925050604084013567ffffffffffffffff811115613d1c57600080fd5b613d28868287016139c3565b9150509250925092565b60008060408385031215613d4557600080fd5b6000613d5385828601613933565b925050602083013567ffffffffffffffff811115613d7057600080fd5b613d7c858286016139c3565b9150509250929050565b600080600060608486031215613d9b57600080fd5b6000613da986828701613933565b935050602084013567ffffffffffffffff811115613dc657600080fd5b613dd2868287016139c3565b925050604084013567ffffffffffffffff811115613def57600080fd5b613dfb8682870161396f565b9150509250925092565b600060208284031215613e1757600080fd5b6000613e2584828501613947565b91505092915050565b600060208284031215613e4057600080fd5b6000613e4e8482850161395b565b91505092915050565b60008060408385031215613e6a57600080fd5b600083013567ffffffffffffffff811115613e8457600080fd5b613e90858286016139c3565b9250506020613ea185828601613b10565b9150509250929050565b6000806101408385031215613ebf57600080fd5b6000613ecd85828601613aaf565b925050610100613edf858286016138ab565b9150509250929050565b600060208284031215613efb57600080fd5b6000613f0984828501613b10565b91505092915050565b6000806000806000806101c08789031215613f2c57600080fd5b6000613f3a89828a01613b10565b9650506020613f4b89828a01613823565b9550506040613f5c89828a01613b10565b945050606087013567ffffffffffffffff811115613f7957600080fd5b613f8589828a016139c3565b9350506080613f9689828a01613aaf565b925050610180613fa889828a016138ab565b9150509295509295509295565b613fbe81614928565b82525050565b613fcd81614862565b82525050565b613fdc81614874565b82525050565b6000613fed8261482a565b613ff78185614840565b935061400781856020860161496d565b614010816149a0565b840191505092915050565b600061402682614835565b6140308185614851565b935061404081856020860161496d565b614049816149a0565b840191505092915050565b6000614061602083614851565b91507f45523732313a20617070726f76616c20746f2063757272656e74206f776e65726000830152602082019050919050565b60006140a1601b83614851565b91507f536166654d6174683a206164646974696f6e206f766572666c6f7700000000006000830152602082019050919050565b60006140e1602083614851565b91507f54686520736f6c7574696f6e206861736e74206265656e2076657269666965646000830152602082019050919050565b6000614121603083614851565b91507f2053656e6465722061646472657373206973206e6f742073616d65206173207460008301527f686174206f6620746865206f776e6572000000000000000000000000000000006020830152604082019050919050565b6000614187601683614851565b91507f546f6b656e496420616c726561647920657869737473000000000000000000006000830152602082019050919050565b60006141c7601e83614851565b91507f536166654d6174683a207375627472616374696f6e206f766572666c6f7700006000830152602082019050919050565b6000614207601c83614851565b91507f546f74616c20746f6b656e20537570706c792068617320656e646564000000006000830152602082019050919050565b6000614247603083614851565b91507f4552433237313a5472616e736665727265642066726f6d20616464726573732060008301527f6973206e6f7420746865206f776e6572000000000000000000000000000000006020830152604082019050919050565b60006142ad601b83614851565b91507f4552433732313a204f6e6c79206f776e65722063616e206d696e7400000000006000830152602082019050919050565b60006142ed603f83614851565b91507f4552433732313a20617070726f76652063616c6c6572206973206e656974686560008301527f7220616e206f776e6572206e6f7220617070726f76656420666f7220616c6c006020830152604082019050919050565b6000614353602983614851565b91507f4552433732313a206f776e657220717565727920666f72206e6f6e657869737460008301527f656e7420746f6b656e00000000000000000000000000000000000000000000006020830152604082019050919050565b60006143b9602d83614851565b91507f4552433732313a20617070726f76656420717565727920666f72206e6f6e206560008301527f78697374656e7420746f6b656e000000000000000000000000000000000000006020830152604082019050919050565b600061441f603183614851565b91507f4552433732313a526563697069656e742061646472657373206973206e6f742060008301527f74686520726967687420616464726573730000000000000000000000000000006020830152604082019050919050565b6000614485601b83614851565b91507f546865726520617265206e6f7420656e6f75676820746f6b656e7300000000006000830152602082019050919050565b6144c1816148a0565b82525050565b60006020820190506144dc6000830184613fc4565b92915050565b60006020820190506144f76000830184613fb5565b92915050565b60006080820190506145126000830187613fb5565b61451f6020830186613fc4565b61452c60408301856144b8565b818103606083015261453e8184613fe2565b905095945050505050565b600060208201905061455e6000830184613fd3565b92915050565b6000602082019050818103600083015261457e818461401b565b905092915050565b6000602082019050818103600083015261459f81614054565b9050919050565b600060208201905081810360008301526145bf81614094565b9050919050565b600060208201905081810360008301526145df816140d4565b9050919050565b600060208201905081810360008301526145ff81614114565b9050919050565b6000602082019050818103600083015261461f8161417a565b9050919050565b6000602082019050818103600083015261463f816141ba565b9050919050565b6000602082019050818103600083015261465f816141fa565b9050919050565b6000602082019050818103600083015261467f8161423a565b9050919050565b6000602082019050818103600083015261469f816142a0565b9050919050565b600060208201905081810360008301526146bf816142e0565b9050919050565b600060208201905081810360008301526146df81614346565b9050919050565b600060208201905081810360008301526146ff816143ac565b9050919050565b6000602082019050818103600083015261471f81614412565b9050919050565b6000602082019050818103600083015261473f81614478565b9050919050565b600060208201905061475b60008301846144b8565b92915050565b6000604051905081810181811067ffffffffffffffff8211171561478457600080fd5b8060405250919050565b600067ffffffffffffffff8211156147a557600080fd5b602082029050919050565b600067ffffffffffffffff8211156147c757600080fd5b602082029050919050565b600067ffffffffffffffff8211156147e957600080fd5b601f19601f8301169050602081019050919050565b600067ffffffffffffffff82111561481557600080fd5b601f19601f8301169050602081019050919050565b600081519050919050565b600081519050919050565b600082825260208201905092915050565b600082825260208201905092915050565b600061486d82614880565b9050919050565b60008115159050919050565b600073ffffffffffffffffffffffffffffffffffffffff82169050919050565b6000819050919050565b60006148b5826148fe565b9050919050565b60008115159050919050565b6000819050919050565b60007fffffffff0000000000000000000000000000000000000000000000000000000082169050919050565b600073ffffffffffffffffffffffffffffffffffffffff82169050919050565b6000819050919050565b60006149338261493a565b9050919050565b60006149458261494c565b9050919050565b600061495782614880565b9050919050565b82818337600083830152505050565b60005b8381101561498b578082015181840152602081019050614970565b8381111561499a576000848401525b50505050565b6000601f19601f830116905091905056fea265627a7a723058206241bcbfec9c0e7301dc2c79eac28839ecd58233daf814df046d09f88d97b9106c6578706572696d656e74616cf50037",
  "source": "//pragma solidity >=0.4.21 <0.6.0;\npragma solidity >=0.5.6;\npragma experimental ABIEncoderV2;\n\n// TODO define a contract call to the zokrates generated solidity contract <Verifier> or <renamedVerifier>\n\nimport \"./Oraclize.sol\";\n//import \"../contracts/zokrates/code/square/Verifier.sol\";\nimport \"./ERC721Mintable.sol\";\nimport \"./ERC721.sol\";\nimport \"./ERC721Metadata.sol\";\nimport \"../contracts/zokrates/code/square/squareVeri.sol\";\n\n\n// TODO define another contract named SolnSquareVerifier that inherits from your ERC721Mintable class\n\ncontract SolnSquareVerifier is ERC721Mintable, squareVeri {\n\n// TODO define a solutions struct that can hold an index & an address\naddress contractOwner = 0x88A6a89522cABed146e8F185C3766cA74327a665;\nuint256 index = 0;\nstruct solutions{\n    uint256 index;\n    bool exists;\n    address owner;\n}\n//uint256 totalSupplyCount = ERC721Mintable.totalSupplyToken();\n//string baseTokenURIMeta = ERC721Mintable.baseTokenURI();\n\n// TODO define an array of the above struct\nsolutions[] zokSolutions;\n\n\n// TODO define a mapping to store unique solutions submitted\nmapping (uint256 => solutions) uniSolutions;\n\n\n\n// TODO Create an event to emit when a solution is added\nevent solutionAdded(uint256 index);\nevent NFTminted(uint256 tokenId);\n\n\n// TODO Create a function to add the solutions to the array and emit the event\nfunction addSolutions(address owner) public returns(uint256){\n    uniSolutions[index] = solutions({\n                                        index: index,\n                                        exists : true, \n                                        owner: owner\n                                        \n                                        });\n    zokSolutions.push(uniSolutions[index]);\n    //return uniSolutions[index].exists;\n    return zokSolutions.length;\n    index++;\n    emit solutionAdded(index);\n}\n\n\n\n// TODO Create a function to mint new NFT only after the solution has been verified\n//  - make sure the solution is unique (has not been used before)\n//  - make sure you handle metadata as well as tokenSuply\n\n\nfunction mintNFT(uint256 totalSupplyCount,address owner, uint256 tokenId, string memory tokenURI, Verifier.Proof memory proof,uint[2] memory input) public returns(bool){\n    require(squareVeri.verifyzok(proof, input) == true, \"The solution hasnt been verified\");\n    //require(zokSolutions[index].owner != contractOwner, \"The tokenId does not represent a valid token\");\n    require(totalSupplyCount < 11, \"Total token Supply has ended\");\n\n    for(uint8  i = 0; i<= zokSolutions.length; i++ ){\n        if(zokSolutions[i].exists == false) {\n            ERC721Mintable.mint(owner, tokenId, tokenURI);\n            ERC721Mintable.setTokenURI(tokenURI, tokenId);\n            emit NFTminted(tokenId);\n            return true; \n            }  \n        }    \n      //index++; \n    }\n\n\n}\n\n\n\n\n\n\n\n\n\n\n\n\n\n\n\n\n\n\n\n\n\n\n\n\n",
  "sourcePath": "C:/Users/saniy/OneDrive/Desktop/blockchain/Capstone-RealEstate/Blockchain-Capstone-master/contracts/SolnSquareVerifier.sol",
  "compiler": {
    "name": "solc",
    "version": "0.5.6+commit.b259423e.Emscripten.clang"
  },
  "schemaVersion": "3.0.1",
  "updatedAt": "2022-02-15T12:59:05.687Z",
  "devdoc": {
    "methods": {
      "isApprovedForAll(address,address)": {
        "details": "Tells whether an operator is approved by a given owner\r",
        "params": {
          "operator": "operator address which you want to query the approval of\r",
          "owner": "owner address which you want to query the approval of\r"
        },
        "return": "bool whether the given operator is approved by the given owner\r"
      },
      "setApprovalForAll(address,bool)": {
        "details": "Sets or unsets the approval of a given operator\r An operator is allowed to transfer all tokens of the sender on their behalf\r",
        "params": {
          "approved": "representing the status of the approval to be set\r",
          "to": "operator address to set the approval\r"
        }
      },
      "supportsInterface(bytes4)": {
        "details": "implement supportsInterface(bytes4) using a lookup table\r"
      },
      "tokenByIndex(uint256)": {
        "details": "Gets the token ID at a given index of all the tokens in this contract\r Reverts if the index is greater or equal to the total number of tokens\r",
        "params": {
          "index": "uint256 representing the index to be accessed of the tokens list\r"
        },
        "return": "uint256 token ID at the given index of the tokens list\r"
      },
      "tokenOfOwnerByIndex(address,uint256)": {
        "details": "Gets the token ID at a given index of the tokens list of the requested owner\r",
        "params": {
          "index": "uint256 representing the index to be accessed of the requested tokens list\r",
          "owner": "address owning the tokens list to be accessed\r"
        },
        "return": "uint256 token ID at the given index of the tokens list owned by the requested address\r"
      },
      "totalSupply()": {
        "details": "Gets the total amount of tokens stored by the contract\r",
        "return": "uint256 representing the total amount of tokens\r"
      }
    }
  },
  "userdoc": {
    "methods": {}
  }
}