{
  "contractName": "squareVeri",
  "abi": [
    {
      "constant": true,
      "inputs": [],
      "name": "success",
      "outputs": [
        {
          "name": "",
          "type": "bool"
        }
      ],
      "payable": false,
      "stateMutability": "view",
      "type": "function"
    },
    {
      "constant": true,
      "inputs": [
        {
          "components": [
            {
              "components": [
                {
                  "name": "X",
                  "type": "uint256"
                },
                {
                  "name": "Y",
                  "type": "uint256"
                }
              ],
              "name": "a",
              "type": "tuple"
            },
            {
              "components": [
                {
                  "name": "X",
                  "type": "uint256[2]"
                },
                {
                  "name": "Y",
                  "type": "uint256[2]"
                }
              ],
              "name": "b",
              "type": "tuple"
            },
            {
              "components": [
                {
                  "name": "X",
                  "type": "uint256"
                },
                {
                  "name": "Y",
                  "type": "uint256"
                }
              ],
              "name": "c",
              "type": "tuple"
            }
          ],
          "name": "proof",
          "type": "tuple"
        },
        {
          "name": "input",
          "type": "uint256[2]"
        }
      ],
      "name": "verifyTx",
      "outputs": [
        {
          "name": "r",
          "type": "bool"
        }
      ],
      "payable": false,
      "stateMutability": "view",
      "type": "function"
    },
    {
      "constant": false,
      "inputs": [
        {
          "components": [
            {
              "components": [
                {
                  "name": "X",
                  "type": "uint256"
                },
                {
                  "name": "Y",
                  "type": "uint256"
                }
              ],
              "name": "a",
              "type": "tuple"
            },
            {
              "components": [
                {
                  "name": "X",
                  "type": "uint256[2]"
                },
                {
                  "name": "Y",
                  "type": "uint256[2]"
                }
              ],
              "name": "b",
              "type": "tuple"
            },
            {
              "components": [
                {
                  "name": "X",
                  "type": "uint256"
                },
                {
                  "name": "Y",
                  "type": "uint256"
                }
              ],
              "name": "c",
              "type": "tuple"
            }
          ],
          "name": "proof",
          "type": "tuple"
        },
        {
          "name": "input",
          "type": "uint256[2]"
        }
      ],
      "name": "verifyzok",
      "outputs": [
        {
          "name": "",
          "type": "bool"
        }
      ],
      "payable": false,
      "stateMutability": "nonpayable",
      "type": "function"
    }
  ],
  "bytecode": "0x608060405260008060006101000a81548160ff02191690831515021790555034801561002a57600080fd5b5061117f8061003a6000396000f3fe608060405234801561001057600080fd5b506004361061005e576000357c0100000000000000000000000000000000000000000000000000000000900480630b93381b1461006357806343cd76fc1461008157806376f4317f146100b1575b600080fd5b61006b6100e1565b60405161007891906110a3565b60405180910390f35b61009b60048036036100969190810190611056565b6100f3565b6040516100a891906110a3565b60405180910390f35b6100cb60048036036100c69190810190611056565b610198565b6040516100d891906110a3565b60405180910390f35b6000809054906101000a900460ff1681565b6000606060026040519080825280602002602001820160405280156101275781602001602082028038833980820191505090505b50905060008090505b600281101561016f5783816002811061014557fe5b602002015182828151811061015657fe5b6020026020010181815250508080600101915050610130565b50600061017c82866101e4565b141561018c576001915050610192565b60009150505b92915050565b60006101a483836100f3565b6000806101000a81548160ff0219169083151502179055506000809054906101000a900460ff16156101d957600190506101de565b600090505b92915050565b6000807f30644e72e131a029b85045b68181585d2833e84879b9709143e1f593f00000019050610212610d37565b61021a610356565b905080608001515160018651011461023157600080fd5b610239610d7f565b6040518060400160405280600081526020016000815250905060008090505b86518110156102cf578387828151811061026e57fe5b60200260200101511061028057600080fd5b6102c0826102bb8560800151600185018151811061029a57fe5b60200260200101518a85815181106102ae57fe5b60200260200101516107a3565b610835565b91508080600101915050610258565b506102f28183608001516000815181106102e557fe5b6020026020010151610835565b90506103388560000151866020015161030a846108e6565b856040015161031c8a604001516108e6565b876060015161032e89600001516108e6565b8960200151610980565b6103485760019350505050610350565b600093505050505b92915050565b61035e610d37565b60405180604001604052807f271c928248d1ec0ff348e2752c032c5176b62ef6db007d0ccdf520d44229c3f781526020017f25d8195a072a5b231e1d4869d6e7afe9d256f49520af3f6871197b09535aca9d8152508160000181905250604051806040016040528060405180604001604052807f03c7b6d535133ca54705f2d8a3f1425a3da501ace186ebf670d86589bf49687381526020017f0d6a71611c3595c1f50a26329ac9be4e8469e974c2b77c8aa6a28d91e141d3b8815250815260200160405180604001604052807f09512728ff620013af00bbdc7ad0246bfca1df380fe12a6eab94a6f46c2cd79281526020017f1e483165b626c034c230ae4c9380f5a3cadab75353a6602b69e4ddb26c78bdf98152508152508160200181905250604051806040016040528060405180604001604052807f15b880a921c168d31ff139b21f620b85fa4cbf1e36e5f4cb94c0760ddd463d2081526020017f261069e4070a0fe0a2c83ef769508d4fae6783f85ea463984a55fe70e8513a64815250815260200160405180604001604052807f12bc21a668f9b86a7aeea2995271a1d267c95543ec40f64739eddec787de0f9781526020017f11dabd2418ec87c5da382d891ea400c9ceaaa685553ae593f1e051cde9b02f6e8152508152508160400181905250604051806040016040528060405180604001604052807f0ccee4813d8b252d3bf44b7dc397ed78e594cd5e0080ffda0bdb0498c0140ee681526020017f114533ae59379e267ade8b6c51ea4f9eceefbf86d046256173697c495a2ff466815250815260200160405180604001604052807f106f487c464ba37107eeecdcf813a29b7cab16abf3b92cbf835b2300b56151d481526020017e54d7e4bfb2691e87b5228440e4992b8fb9e6bae92c757c76e08987c570aea58152508152508160600181905250600360405190808252806020026020018201604052801561064457816020015b610631610d99565b8152602001906001900390816106295790505b50816080018190525060405180604001604052807f07046e5847d1dd83b0819c464fa1ad87d5492ddc187f18f41afdb6068e9f16ca81526020017f2855afec9d064fffe6bf11796049b3febb5e43eb61975fdb7605e0cca4efeecf81525081608001516000815181106106b357fe5b602002602001018190525060405180604001604052807f1085bc5c8e1d27a4bc37684826db69ab2f88c449fca226fba883052fe37e776981526020017f2ee6fb4257c398efdf53c13795c90181e27644d0fba0c0155b0ac635677ea9f9815250816080015160018151811061072457fe5b602002602001018190525060405180604001604052807f062f3b39c87d0f3a5ea645a735572b2208613dfab266a36d971d55a9bc8959a581526020017f2cd50c07d740c0be5428c1b3fd3c86602afd841ba69584dfc9db96e7e6d60b90815250816080015160028151811061079557fe5b602002602001018190525090565b6107ab610d7f565b6107b3610db3565b8360000151816000600381106107c557fe5b6020020181815250508360200151816001600381106107e057fe5b60200201818152505082816002600381106107f757fe5b602002018181525050600060608360808460076107d05a03fa9050806000811461082057610822565bfe5b508061082d57600080fd5b505092915050565b61083d610d7f565b610845610dd5565b83600001518160006004811061085757fe5b60200201818152505083602001518160016004811061087257fe5b60200201818152505082600001518160026004811061088d57fe5b6020020181815250508260200151816003600481106108a857fe5b602002018181525050600060608360c08460066107d05a03fa905080600081146108d1576108d3565bfe5b50806108de57600080fd5b505092915050565b6108ee610d7f565b60007f30644e72e131a029b85045b68181585d97816a916871ca8d3c208c16d87cfd4790506000836000015114801561092b575060008360200151145b1561094f57604051806040016040528060008152602001600081525091505061097b565b6040518060400160405280846000015181526020018285602001518161097157fe5b0683038152509150505b919050565b6000606060046040519080825280602002602001820160405280156109bf57816020015b6109ac610d99565b8152602001906001900390816109a45790505b509050606060046040519080825280602002602001820160405280156109ff57816020015b6109ec610df7565b8152602001906001900390816109e45790505b5090508a82600081518110610a1057fe5b60200260200101819052508882600181518110610a2957fe5b60200260200101819052508682600281518110610a4257fe5b60200260200101819052508482600381518110610a5b57fe5b60200260200101819052508981600081518110610a7457fe5b60200260200101819052508781600181518110610a8d57fe5b60200260200101819052508581600281518110610aa657fe5b60200260200101819052508381600381518110610abf57fe5b6020026020010181905250610ad48282610ae4565b9250505098975050505050505050565b60008151835114610af457600080fd5b6000835190506000600682029050606081604051908082528060200260200182016040528015610b335781602001602082028038833980820191505090505b50905060008090505b83811015610cd957868181518110610b5057fe5b602002602001015160000151826000600684020181518110610b6e57fe5b602002602001018181525050868181518110610b8657fe5b602002602001015160200151826001600684020181518110610ba457fe5b602002602001018181525050858181518110610bbc57fe5b602002602001015160000151600160028110610bd457fe5b6020020151826002600684020181518110610beb57fe5b602002602001018181525050858181518110610c0357fe5b602002602001015160000151600060028110610c1b57fe5b6020020151826003600684020181518110610c3257fe5b602002602001018181525050858181518110610c4a57fe5b602002602001015160200151600160028110610c6257fe5b6020020151826004600684020181518110610c7957fe5b602002602001018181525050858181518110610c9157fe5b602002602001015160200151600060028110610ca957fe5b6020020151826005600684020181518110610cc057fe5b6020026020010181815250508080600101915050610b3c565b50610ce2610e1d565b6000602082602086026020860160086107d05a03fa90508060008114610d0757610d09565bfe5b5080610d1457600080fd5b600082600060018110610d2357fe5b602002015114159550505050505092915050565b604051806101e00160405280610d4b610d99565b8152602001610d58610df7565b8152602001610d65610df7565b8152602001610d72610df7565b8152602001606081525090565b604051806040016040528060008152602001600081525090565b604051806040016040528060008152602001600081525090565b6040518060600160405280600390602082028038833980820191505090505090565b6040518060800160405280600490602082028038833980820191505090505090565b6040518060800160405280610e0a610e3f565b8152602001610e17610e3f565b81525090565b6040518060200160405280600190602082028038833980820191505090505090565b6040518060400160405280600290602082028038833980820191505090505090565b600082601f830112610e7257600080fd5b6002610e85610e80826110eb565b6110be565b91508183856020840282011115610e9b57600080fd5b60005b83811015610ecb5781610eb18882611042565b845260208401935060208301925050600181019050610e9e565b5050505092915050565b600082601f830112610ee657600080fd5b6002610ef9610ef48261110d565b6110be565b91508183856020840282011115610f0f57600080fd5b60005b83811015610f3f5781610f258882611042565b845260208401935060208301925050600181019050610f12565b5050505092915050565b600060408284031215610f5b57600080fd5b610f6560406110be565b90506000610f7584828501611042565b6000830152506020610f8984828501611042565b60208301525092915050565b600060808284031215610fa757600080fd5b610fb160406110be565b90506000610fc184828501610e61565b6000830152506040610fd584828501610e61565b60208301525092915050565b60006101008284031215610ff457600080fd5b610ffe60606110be565b9050600061100e84828501610f49565b600083015250604061102284828501610f95565b60208301525060c061103684828501610f49565b60408301525092915050565b600061104e823561113b565b905092915050565b600080610140838503121561106a57600080fd5b600061107885828601610fe1565b92505061010061108a85828601610ed5565b9150509250929050565b61109d8161112f565b82525050565b60006020820190506110b86000830184611094565b92915050565b6000604051905081810181811067ffffffffffffffff821117156110e157600080fd5b8060405250919050565b600067ffffffffffffffff82111561110257600080fd5b602082029050919050565b600067ffffffffffffffff82111561112457600080fd5b602082029050919050565b60008115159050919050565b600081905091905056fea265627a7a723058208b51827e1d83fce65af5bd48cc3554983c62582a62a8fad70d2ab2bf53d128c86c6578706572696d656e74616cf50037",
  "source": "pragma solidity >=0.5.1;\r\npragma experimental ABIEncoderV2;\r\nimport './verifier.sol';\r\n\r\ncontract squareVeri is Verifier{\r\n    bool public success = false;\r\n    function verifyzok(\r\n            Proof memory proof, \r\n            uint[2] memory input) public returns (bool) {\r\n            success = verifyTx(proof, input);\r\n            if (success) {\r\n                return true;\r\n            }else {\r\n                return false;\r\n            }\r\n        }\r\n        \r\n}",
  "sourcePath": "C:\\Users\\saniy\\OneDrive\\Desktop\\blockchain\\Capstone-RealEstate\\Blockchain-Capstone-master\\contracts\\zokrates\\code\\square\\squareVeri.sol",
  "compiler": {
    "name": "solc",
    "version": "0.5.6+commit.b259423e.Emscripten.clang"
  },
  "schemaVersion": "3.0.1",
  "updatedAt": "2022-02-15T15:41:15.829Z",
  "devdoc": {
    "methods": {}
  },
  "userdoc": {
    "methods": {}
  }
}